{
  "contractName": "MarketCurrencyManager",
  "abi": [
    {
      "inputs": [
        {
          "internalType": "bool",
          "name": "_currencyPublicAll",
          "type": "bool"
        },
        {
          "internalType": "uint256",
          "name": "_commisionDefault",
          "type": "uint256"
        },
        {
          "internalType": "uint256",
          "name": "_minAmountDefault",
          "type": "uint256"
        }
      ],
      "stateMutability": "nonpayable",
      "type": "constructor"
    },
    {
      "anonymous": false,
      "inputs": [
        {
          "indexed": true,
          "internalType": "address",
          "name": "previousOwner",
          "type": "address"
        },
        {
          "indexed": true,
          "internalType": "address",
          "name": "newOwner",
          "type": "address"
        }
      ],
      "name": "OwnershipTransferred",
      "type": "event"
    },
    {
      "anonymous": false,
      "inputs": [
        {
          "indexed": false,
          "internalType": "address",
          "name": "currency",
          "type": "address"
        },
        {
          "indexed": false,
          "internalType": "uint256",
          "name": "commision",
          "type": "uint256"
        },
        {
          "indexed": false,
          "internalType": "uint256",
          "name": "minAmount",
          "type": "uint256"
        },
        {
          "indexed": false,
          "internalType": "bool",
          "name": "valid",
          "type": "bool"
        },
        {
          "indexed": false,
          "internalType": "uint256",
          "name": "time",
          "type": "uint256"
        }
      ],
      "name": "UpdateCurrency",
      "type": "event"
    },
    {
      "inputs": [],
      "name": "owner",
      "outputs": [
        {
          "internalType": "address",
          "name": "",
          "type": "address"
        }
      ],
      "stateMutability": "view",
      "type": "function",
      "constant": true
    },
    {
      "inputs": [],
      "name": "renounceOwnership",
      "outputs": [],
      "stateMutability": "nonpayable",
      "type": "function"
    },
    {
      "inputs": [
        {
          "internalType": "address",
          "name": "newOwner",
          "type": "address"
        }
      ],
      "name": "transferOwnership",
      "outputs": [],
      "stateMutability": "nonpayable",
      "type": "function"
    },
    {
      "inputs": [
        {
          "internalType": "address",
          "name": "_user",
          "type": "address"
        },
        {
          "internalType": "bool",
          "name": "_isWhilelist",
          "type": "bool"
        }
      ],
      "name": "setWhilelist",
      "outputs": [],
      "stateMutability": "nonpayable",
      "type": "function"
    },
    {
      "inputs": [
        {
          "internalType": "bool",
          "name": "_currencyPublicAll",
          "type": "bool"
        }
      ],
      "name": "setCurrencyPublicAll",
      "outputs": [],
      "stateMutability": "nonpayable",
      "type": "function"
    },
    {
      "inputs": [
        {
          "internalType": "uint256",
          "name": "_commisionDefault",
          "type": "uint256"
        }
      ],
      "name": "setCommisionDefault",
      "outputs": [],
      "stateMutability": "nonpayable",
      "type": "function"
    },
    {
      "inputs": [
        {
          "internalType": "uint256",
          "name": "_minAmountDefault",
          "type": "uint256"
        }
      ],
      "name": "setMinAmountDefault",
      "outputs": [],
      "stateMutability": "nonpayable",
      "type": "function"
    },
    {
      "inputs": [
        {
          "internalType": "address[]",
          "name": "_nfts",
          "type": "address[]"
        },
        {
          "internalType": "address[]",
          "name": "_currencies",
          "type": "address[]"
        },
        {
          "internalType": "uint256[]",
          "name": "_commisions",
          "type": "uint256[]"
        },
        {
          "internalType": "uint256[]",
          "name": "_minAmounts",
          "type": "uint256[]"
        },
        {
          "internalType": "bool[]",
          "name": "_valids",
          "type": "bool[]"
        }
      ],
      "name": "setCurrencies",
      "outputs": [],
      "stateMutability": "nonpayable",
      "type": "function"
    },
    {
      "inputs": [
        {
          "internalType": "address",
          "name": "_nft",
          "type": "address"
        },
        {
          "internalType": "address",
          "name": "_currency",
          "type": "address"
        }
      ],
      "name": "getCurrency",
      "outputs": [
        {
          "internalType": "uint256",
          "name": "",
          "type": "uint256"
        },
        {
          "internalType": "uint256",
          "name": "",
          "type": "uint256"
        },
        {
          "internalType": "bool",
          "name": "",
          "type": "bool"
        }
      ],
      "stateMutability": "view",
      "type": "function",
      "constant": true
    }
  ],
  "bytecode": "0x608060405234801561001057600080fd5b50604051610caa380380610caa83398101604081905261002f91610098565b600080546001600160a01b031916339081178255604051909182917f8be0079c531659141344cd1fd0a4f28419497f9722a3daafe3b4186f6b6457e0908290a35060008054931515600160a01b0260ff60a01b19909416939093179092556001556002556100d4565b6000806000606084860312156100ad57600080fd5b835180151581146100bd57600080fd5b602085015160409095015190969495509392505050565b610bc7806100e36000396000f3fe608060405234801561001057600080fd5b50600436106100935760003560e01c806381a3f3731161006657806381a3f373146100db578063880ce8ec146100ee5780638da5cb5b14610123578063e261950b1461013e578063f2fde38b1461015157600080fd5b8063246d466c146100985780633e48d1d8146100ad57806349752554146100c0578063715018a6146100d3575b600080fd5b6100ab6100a6366004610a64565b610164565b005b6100ab6100bb366004610977565b61019c565b6100ab6100ce36600461094d565b6104b5565b6100ab61050a565b6100ab6100e9366004610a49565b61057e565b6101016100fc36600461091a565b6105c6565b6040805193845260208401929092521515908201526060015b60405180910390f35b6000546040516001600160a01b03909116815260200161011a565b6100ab61014c366004610a64565b610673565b6100ab61015f3660046108f8565b6106a2565b6000546001600160a01b031633146101975760405162461bcd60e51b815260040161018e90610aab565b60405180910390fd5b600155565b3360009081526003602052604090205460ff1661020a5760405162461bcd60e51b815260206004820152602660248201527f4572726f723a206f6e6c79207768696c656c6973742063616e207365742063756044820152657272656e637960d01b606482015260840161018e565b835185511461022b5760405162461bcd60e51b815260040161018e90610a7d565b825184511461024c5760405162461bcd60e51b815260040161018e90610a7d565b815184511461026d5760405162461bcd60e51b815260040161018e90610a7d565b805184511461028e5760405162461bcd60e51b815260040161018e90610a7d565b60005b84518161ffff1610156104ad576040518060600160405280858361ffff16815181106102bf576102bf610b65565b60200260200101518152602001848361ffff16815181106102e2576102e2610b65565b60200260200101518152602001838361ffff168151811061030557610305610b65565b6020026020010151151581525060046000888461ffff168151811061032c5761032c610b65565b60200260200101516001600160a01b03166001600160a01b031681526020019081526020016000206000878461ffff168151811061036c5761036c610b65565b60200260200101516001600160a01b03166001600160a01b03168152602001908152602001600020600082015181600001556020820151816001015560408201518160020160006101000a81548160ff0219169083151502179055509050507f62e2059b878cb60acc6b9611311647f19a62738b26a7cee96790aece7e1819b3858261ffff168151811061040257610402610b65565b6020026020010151858361ffff168151811061042057610420610b65565b6020026020010151858461ffff168151811061043e5761043e610b65565b6020026020010151858561ffff168151811061045c5761045c610b65565b602090810291909101810151604080516001600160a01b039096168652918501939093528301521515606082015242608082015260a00160405180910390a1806104a581610b35565b915050610291565b505050505050565b6000546001600160a01b031633146104df5760405162461bcd60e51b815260040161018e90610aab565b6001600160a01b03919091166000908152600360205260409020805460ff1916911515919091179055565b6000546001600160a01b031633146105345760405162461bcd60e51b815260040161018e90610aab565b600080546040516001600160a01b03909116907f8be0079c531659141344cd1fd0a4f28419497f9722a3daafe3b4186f6b6457e0908390a3600080546001600160a01b0319169055565b6000546001600160a01b031633146105a85760405162461bcd60e51b815260040161018e90610aab565b60008054911515600160a01b0260ff60a01b19909216919091179055565b6001600160a01b0380831660009081526004602090815260408083209385168352929052908120600201548190819060ff161561063d575050506001600160a01b0382811660009081526004602090815260408083209385168352929052208054600182015460029092015490919060ff1661066c565b600054600160a01b900460ff161561066257600154600254600192509250925061066c565b5060009150819050805b9250925092565b6000546001600160a01b0316331461069d5760405162461bcd60e51b815260040161018e90610aab565b600255565b6000546001600160a01b031633146106cc5760405162461bcd60e51b815260040161018e90610aab565b6001600160a01b0381166107315760405162461bcd60e51b815260206004820152602660248201527f4f776e61626c653a206e6577206f776e657220697320746865207a65726f206160448201526564647265737360d01b606482015260840161018e565b600080546040516001600160a01b03808516939216917f8be0079c531659141344cd1fd0a4f28419497f9722a3daafe3b4186f6b6457e091a3600080546001600160a01b0319166001600160a01b0392909216919091179055565b80356001600160a01b03811681146107a357600080fd5b919050565b600082601f8301126107b957600080fd5b813560206107ce6107c983610b11565b610ae0565b80838252828201915082860187848660051b89010111156107ee57600080fd5b60005b85811015610814576108028261078c565b845292840192908401906001016107f1565b5090979650505050505050565b600082601f83011261083257600080fd5b813560206108426107c983610b11565b80838252828201915082860187848660051b890101111561086257600080fd5b60005b8581101561081457610876826108e8565b84529284019290840190600101610865565b600082601f83011261089957600080fd5b813560206108a96107c983610b11565b80838252828201915082860187848660051b89010111156108c957600080fd5b60005b85811015610814578135845292840192908401906001016108cc565b803580151581146107a357600080fd5b60006020828403121561090a57600080fd5b6109138261078c565b9392505050565b6000806040838503121561092d57600080fd5b6109368361078c565b91506109446020840161078c565b90509250929050565b6000806040838503121561096057600080fd5b6109698361078c565b9150610944602084016108e8565b600080600080600060a0868803121561098f57600080fd5b853567ffffffffffffffff808211156109a757600080fd5b6109b389838a016107a8565b965060208801359150808211156109c957600080fd5b6109d589838a016107a8565b955060408801359150808211156109eb57600080fd5b6109f789838a01610888565b94506060880135915080821115610a0d57600080fd5b610a1989838a01610888565b93506080880135915080821115610a2f57600080fd5b50610a3c88828901610821565b9150509295509295909350565b600060208284031215610a5b57600080fd5b610913826108e8565b600060208284031215610a7657600080fd5b5035919050565b602080825260149082015273115c9c9bdc8e881a5b9d985b1a59081a5b9c1d5d60621b604082015260600190565b6020808252818101527f4f776e61626c653a2063616c6c6572206973206e6f7420746865206f776e6572604082015260600190565b604051601f8201601f1916810167ffffffffffffffff81118282101715610b0957610b09610b7b565b604052919050565b600067ffffffffffffffff821115610b2b57610b2b610b7b565b5060051b60200190565b600061ffff80831681811415610b5b57634e487b7160e01b600052601160045260246000fd5b6001019392505050565b634e487b7160e01b600052603260045260246000fd5b634e487b7160e01b600052604160045260246000fdfea2646970667358221220c3dd51054d4680907a26e12e60b4556d605b635b69372da08d67b7efcc2d6d5864736f6c63430008060033",
  "immutableReferences": {},
  "source": "// SPDX-License-Identifier: MIT\npragma solidity 0.8.6;\n\nimport \"./IMarketCurrencyManager.sol\";\nimport \"./Ownable.sol\";\n\ncontract MarketCurrencyManager is IMarketCurrencyManager, Ownable {\n    bool currencyPublicAll;\n    uint256 commisionDefault; //2 decinal\n    uint256 minAmountDefault;\n\n    mapping(address => bool) whilelists;\n\n    struct Currency {\n        uint256 commission; //2 decinal\n        uint256 minAmount;\n        bool valid;\n    }\n    mapping(address => mapping(address => Currency)) currencies; // nft=>currency\n    // mapping( address => Currency) currencies;\n    event UpdateCurrency(\n        address currency,\n        uint256 commision,\n        uint256 minAmount,\n        bool valid,\n        uint256 time\n    );\n\n    constructor(\n        bool _currencyPublicAll,\n        uint256 _commisionDefault,\n        uint256 _minAmountDefault\n    ) {\n        currencyPublicAll = _currencyPublicAll;\n        commisionDefault = _commisionDefault;\n        minAmountDefault = _minAmountDefault;\n    }\n\n    modifier onlyWhilelist() {\n        require(\n            whilelists[_msgSender()],\n            \"Error: only whilelist can set currency\"\n        );\n        _;\n    }\n\n    function setWhilelist(address _user, bool _isWhilelist) external onlyOwner {\n        whilelists[_user] = _isWhilelist;\n    }\n\n    function setCurrencyPublicAll(bool _currencyPublicAll) external onlyOwner {\n        currencyPublicAll = _currencyPublicAll;\n    }\n\n    function setCommisionDefault(uint256 _commisionDefault) external onlyOwner {\n        commisionDefault = _commisionDefault;\n    }\n\n    function setMinAmountDefault(uint256 _minAmountDefault) external onlyOwner {\n        minAmountDefault = _minAmountDefault;\n    }\n\n    function setCurrencies(\n        address[] memory _nfts,\n        address[] memory _currencies,\n        uint256[] memory _commisions,\n        uint256[] memory _minAmounts,\n        bool[] memory _valids\n    ) external override onlyWhilelist {\n        require(\n            _nfts.length == _currencies.length,\n            \"Error: invalid input\"\n        );\n        require(\n            _currencies.length == _commisions.length,\n            \"Error: invalid input\"\n        );\n        require(\n            _currencies.length == _minAmounts.length,\n            \"Error: invalid input\"\n        );\n        require(_currencies.length == _valids.length, \"Error: invalid input\");\n\n        for (uint16 i = 0; i < _currencies.length; i++) {\n            currencies[_nfts[i]][_currencies[i]] = Currency(\n                _commisions[i],\n                _minAmounts[i],\n                _valids[i]\n            );\n            emit UpdateCurrency(\n                _currencies[i],\n                _commisions[i],\n                _minAmounts[i],\n                _valids[i],\n                block.timestamp\n            );\n        }\n    }\n\n    function getCurrency(address _nft, address _currency)\n        external\n        view\n        override\n        returns (\n            uint256,\n            uint256,\n            bool\n        )\n    {\n        if (currencies[_nft][_currency].valid)\n            return (\n                currencies[_nft][_currency].commission,\n                currencies[_nft][_currency].minAmount,\n                currencies[_nft][_currency].valid\n            );\n\n        if (currencyPublicAll) {\n            return (commisionDefault, minAmountDefault, true);\n        } else return (0, 0, false);\n    }\n}\n",
  "sourcePath": "/Users/tabatrung/Documents/Work/SpaceMarvel/git/SVE-Market/contracts/access/MarketCurrencyManager.sol",
  "compiler": {
    "name": "solc",
    "version": "0.8.6+commit.11564f7e.Emscripten.clang"
  },
  "schemaVersion": "3.4.3",
  "updatedAt": "2022-01-03T09:39:38.609Z",
  "networkType": "ethereum",
  "devdoc": {
    "kind": "dev",
    "methods": {
      "owner()": {
        "details": "Returns the address of the current owner."
      },
      "renounceOwnership()": {
        "details": "Leaves the contract without owner. It will not be possible to call `onlyOwner` functions anymore. Can only be called by the current owner. NOTE: Renouncing ownership will leave the contract without an owner, thereby removing any functionality that is only available to the owner."
      },
      "transferOwnership(address)": {
        "details": "Transfers ownership of the contract to a new account (`newOwner`). Can only be called by the current owner."
      }
    },
    "version": 1
  },
  "userdoc": {
    "kind": "user",
    "methods": {},
    "version": 1
  }
}