{
  "contractName": "MarketV2",
  "abi": [
    {
      "inputs": [
        {
          "internalType": "contract IMarketAccessManager",
          "name": "_accessManager",
          "type": "address"
        },
        {
          "internalType": "contract MarketV2Storage",
          "name": "_marketV2Storage",
          "type": "address"
        },
        {
          "internalType": "contract IMarketCurrencyManager",
          "name": "_currencyManager",
          "type": "address"
        },
        {
          "internalType": "address",
          "name": "_vault",
          "type": "address"
        },
        {
          "internalType": "uint256",
          "name": "_duration",
          "type": "uint256"
        }
      ],
      "stateMutability": "nonpayable",
      "type": "constructor"
    },
    {
      "anonymous": false,
      "inputs": [
        {
          "indexed": true,
          "internalType": "address",
          "name": "owner",
          "type": "address"
        },
        {
          "indexed": true,
          "internalType": "address",
          "name": "nft",
          "type": "address"
        },
        {
          "indexed": true,
          "internalType": "uint256",
          "name": "nftId",
          "type": "uint256"
        },
        {
          "indexed": false,
          "internalType": "address",
          "name": "listingUser",
          "type": "address"
        },
        {
          "indexed": false,
          "internalType": "address",
          "name": "currency",
          "type": "address"
        },
        {
          "indexed": false,
          "internalType": "uint256",
          "name": "listingPrice",
          "type": "uint256"
        },
        {
          "indexed": false,
          "internalType": "uint256",
          "name": "listingTime",
          "type": "uint256"
        },
        {
          "indexed": false,
          "internalType": "uint256",
          "name": "openTime",
          "type": "uint256"
        }
      ],
      "name": "Listing",
      "type": "event"
    },
    {
      "anonymous": false,
      "inputs": [
        {
          "indexed": true,
          "internalType": "address",
          "name": "previousOwner",
          "type": "address"
        },
        {
          "indexed": true,
          "internalType": "address",
          "name": "newOwner",
          "type": "address"
        }
      ],
      "name": "OwnershipTransferred",
      "type": "event"
    },
    {
      "anonymous": false,
      "inputs": [],
      "name": "Pause",
      "type": "event"
    },
    {
      "anonymous": false,
      "inputs": [
        {
          "indexed": true,
          "internalType": "address",
          "name": "owner",
          "type": "address"
        },
        {
          "indexed": true,
          "internalType": "address",
          "name": "nft",
          "type": "address"
        },
        {
          "indexed": false,
          "internalType": "uint256",
          "name": "nftId",
          "type": "uint256"
        },
        {
          "indexed": false,
          "internalType": "uint256",
          "name": "oldPrice",
          "type": "uint256"
        },
        {
          "indexed": false,
          "internalType": "uint256",
          "name": "newPrice",
          "type": "uint256"
        },
        {
          "indexed": false,
          "internalType": "uint256",
          "name": "time",
          "type": "uint256"
        }
      ],
      "name": "PriceUpdate",
      "type": "event"
    },
    {
      "anonymous": false,
      "inputs": [
        {
          "indexed": true,
          "internalType": "address",
          "name": "previousOwner",
          "type": "address"
        },
        {
          "indexed": true,
          "internalType": "address",
          "name": "newOwner",
          "type": "address"
        },
        {
          "indexed": true,
          "internalType": "address",
          "name": "nft",
          "type": "address"
        },
        {
          "indexed": false,
          "internalType": "uint256",
          "name": "nftId",
          "type": "uint256"
        },
        {
          "indexed": false,
          "internalType": "address",
          "name": "currency",
          "type": "address"
        },
        {
          "indexed": false,
          "internalType": "uint256",
          "name": "listingPrice",
          "type": "uint256"
        },
        {
          "indexed": false,
          "internalType": "uint256",
          "name": "price",
          "type": "uint256"
        },
        {
          "indexed": false,
          "internalType": "uint256",
          "name": "sellerAmount",
          "type": "uint256"
        },
        {
          "indexed": false,
          "internalType": "uint256",
          "name": "commissionAmount",
          "type": "uint256"
        },
        {
          "indexed": false,
          "internalType": "uint256",
          "name": "time",
          "type": "uint256"
        }
      ],
      "name": "Purchase",
      "type": "event"
    },
    {
      "anonymous": false,
      "inputs": [
        {
          "indexed": true,
          "internalType": "address",
          "name": "owner",
          "type": "address"
        },
        {
          "indexed": true,
          "internalType": "address",
          "name": "nft",
          "type": "address"
        },
        {
          "indexed": true,
          "internalType": "uint256",
          "name": "nftId",
          "type": "uint256"
        },
        {
          "indexed": false,
          "internalType": "uint256",
          "name": "time",
          "type": "uint256"
        }
      ],
      "name": "UnListing",
      "type": "event"
    },
    {
      "anonymous": false,
      "inputs": [],
      "name": "Unpause",
      "type": "event"
    },
    {
      "inputs": [],
      "name": "duration",
      "outputs": [
        {
          "internalType": "uint256",
          "name": "",
          "type": "uint256"
        }
      ],
      "stateMutability": "view",
      "type": "function",
      "constant": true
    },
    {
      "inputs": [],
      "name": "owner",
      "outputs": [
        {
          "internalType": "address",
          "name": "",
          "type": "address"
        }
      ],
      "stateMutability": "view",
      "type": "function",
      "constant": true
    },
    {
      "inputs": [],
      "name": "pause",
      "outputs": [],
      "stateMutability": "nonpayable",
      "type": "function"
    },
    {
      "inputs": [],
      "name": "paused",
      "outputs": [
        {
          "internalType": "bool",
          "name": "",
          "type": "bool"
        }
      ],
      "stateMutability": "view",
      "type": "function",
      "constant": true
    },
    {
      "inputs": [],
      "name": "renounceOwnership",
      "outputs": [],
      "stateMutability": "nonpayable",
      "type": "function"
    },
    {
      "inputs": [
        {
          "internalType": "address",
          "name": "newOwner",
          "type": "address"
        }
      ],
      "name": "transferOwnership",
      "outputs": [],
      "stateMutability": "nonpayable",
      "type": "function"
    },
    {
      "inputs": [],
      "name": "unpause",
      "outputs": [],
      "stateMutability": "nonpayable",
      "type": "function"
    },
    {
      "inputs": [
        {
          "internalType": "contract IMarketAccessManager",
          "name": "_accessManager",
          "type": "address"
        }
      ],
      "name": "setAccessManager",
      "outputs": [],
      "stateMutability": "nonpayable",
      "type": "function"
    },
    {
      "inputs": [
        {
          "internalType": "address",
          "name": "_vault",
          "type": "address"
        }
      ],
      "name": "setVauld",
      "outputs": [],
      "stateMutability": "nonpayable",
      "type": "function"
    },
    {
      "inputs": [
        {
          "internalType": "uint256",
          "name": "_duration",
          "type": "uint256"
        }
      ],
      "name": "setDuration",
      "outputs": [],
      "stateMutability": "nonpayable",
      "type": "function"
    },
    {
      "inputs": [
        {
          "internalType": "address[]",
          "name": "_nfts",
          "type": "address[]"
        },
        {
          "internalType": "bool[]",
          "name": "_isSupports",
          "type": "bool[]"
        }
      ],
      "name": "setNFT",
      "outputs": [],
      "stateMutability": "nonpayable",
      "type": "function"
    },
    {
      "inputs": [
        {
          "internalType": "contract MarketV2Storage",
          "name": "_marketV2Storage",
          "type": "address"
        }
      ],
      "name": "setStorage",
      "outputs": [],
      "stateMutability": "nonpayable",
      "type": "function"
    },
    {
      "inputs": [
        {
          "internalType": "contract IMarketCurrencyManager",
          "name": "_currencyManager",
          "type": "address"
        }
      ],
      "name": "setCurrencyManager",
      "outputs": [],
      "stateMutability": "nonpayable",
      "type": "function"
    },
    {
      "inputs": [
        {
          "internalType": "address",
          "name": "_nft",
          "type": "address"
        },
        {
          "internalType": "uint256",
          "name": "_nftId",
          "type": "uint256"
        }
      ],
      "name": "getItem",
      "outputs": [
        {
          "internalType": "address",
          "name": "",
          "type": "address"
        },
        {
          "internalType": "address",
          "name": "",
          "type": "address"
        },
        {
          "internalType": "uint256",
          "name": "",
          "type": "uint256"
        },
        {
          "internalType": "uint256",
          "name": "",
          "type": "uint256"
        },
        {
          "internalType": "uint256",
          "name": "",
          "type": "uint256"
        },
        {
          "internalType": "uint256",
          "name": "",
          "type": "uint256"
        }
      ],
      "stateMutability": "view",
      "type": "function",
      "constant": true
    },
    {
      "inputs": [
        {
          "internalType": "address",
          "name": "_nft",
          "type": "address"
        },
        {
          "internalType": "uint256",
          "name": "_nftId",
          "type": "uint256"
        },
        {
          "internalType": "address",
          "name": "_currency",
          "type": "address"
        },
        {
          "internalType": "uint256",
          "name": "_price",
          "type": "uint256"
        }
      ],
      "name": "listing",
      "outputs": [],
      "stateMutability": "nonpayable",
      "type": "function"
    },
    {
      "inputs": [
        {
          "internalType": "address[]",
          "name": "_nfts",
          "type": "address[]"
        },
        {
          "internalType": "uint256[]",
          "name": "_nftIds",
          "type": "uint256[]"
        },
        {
          "internalType": "address[]",
          "name": "_currencies",
          "type": "address[]"
        },
        {
          "internalType": "uint256[]",
          "name": "_prices",
          "type": "uint256[]"
        },
        {
          "internalType": "uint256[]",
          "name": "_durations",
          "type": "uint256[]"
        }
      ],
      "name": "listingByAdmin",
      "outputs": [],
      "stateMutability": "nonpayable",
      "type": "function"
    },
    {
      "inputs": [
        {
          "internalType": "address",
          "name": "_nft",
          "type": "address"
        },
        {
          "internalType": "uint256",
          "name": "_nftId",
          "type": "uint256"
        },
        {
          "internalType": "uint256",
          "name": "_amount",
          "type": "uint256"
        }
      ],
      "name": "buy",
      "outputs": [],
      "stateMutability": "payable",
      "type": "function",
      "payable": true
    },
    {
      "inputs": [
        {
          "internalType": "address[]",
          "name": "_nfts",
          "type": "address[]"
        },
        {
          "internalType": "uint256[]",
          "name": "_nftIds",
          "type": "uint256[]"
        },
        {
          "internalType": "uint256[]",
          "name": "_prices",
          "type": "uint256[]"
        }
      ],
      "name": "updatePrice",
      "outputs": [
        {
          "internalType": "bool",
          "name": "",
          "type": "bool"
        }
      ],
      "stateMutability": "nonpayable",
      "type": "function"
    },
    {
      "inputs": [
        {
          "internalType": "address[]",
          "name": "_nfts",
          "type": "address[]"
        },
        {
          "internalType": "uint256[]",
          "name": "_nftIds",
          "type": "uint256[]"
        }
      ],
      "name": "unListing",
      "outputs": [
        {
          "internalType": "bool",
          "name": "",
          "type": "bool"
        }
      ],
      "stateMutability": "nonpayable",
      "type": "function"
    },
    {
      "inputs": [
        {
          "internalType": "address",
          "name": "_nft",
          "type": "address"
        },
        {
          "internalType": "address",
          "name": "_currency",
          "type": "address"
        }
      ],
      "name": "getCurrency",
      "outputs": [
        {
          "internalType": "uint256",
          "name": "",
          "type": "uint256"
        },
        {
          "internalType": "uint256",
          "name": "",
          "type": "uint256"
        },
        {
          "internalType": "bool",
          "name": "",
          "type": "bool"
        }
      ],
      "stateMutability": "view",
      "type": "function",
      "constant": true
    },
    {
      "inputs": [
        {
          "internalType": "address",
          "name": "_token",
          "type": "address"
        }
      ],
      "name": "rescueStuckErc20",
      "outputs": [],
      "stateMutability": "nonpayable",
      "type": "function"
    }
  ],
  "bytecode": "0x60806040526000805460ff60a01b191690553480156200001e57600080fd5b5060405162003a2e38038062003a2e833981016040819052620000419162000255565b600080546001600160a01b031916339081178255604051909182917f8be0079c531659141344cd1fd0a4f28419497f9722a3daafe3b4186f6b6457e0908290a350600180556001600160a01b038216620000e25760405162461bcd60e51b815260206004820152601760248201527f4572726f723a205661756c74206164647265737328302900000000000000000060448201526064015b60405180910390fd5b6001600160a01b0385166200013a5760405162461bcd60e51b815260206004820152601f60248201527f4572726f723a204163636573734d616e616765722061646472657373283029006044820152606401620000d9565b6001600160a01b0384166200019c5760405162461bcd60e51b815260206004820152602160248201527f4572726f723a204d61726b6574563253746f72616765206164647265737328306044820152602960f81b6064820152608401620000d9565b6001600160a01b038316620001fe5760405162461bcd60e51b815260206004820152602160248201527f4572726f723a2043757272656e63794d616e61676572206164647265737328306044820152602960f81b6064820152608401620000d9565b600480546001600160a01b03199081166001600160a01b03978816179091556005805482169587169590951790945560068054851693861693909317909255600780549093169316929092179055600255620002e2565b600080600080600060a086880312156200026e57600080fd5b85516200027b81620002c9565b60208701519095506200028e81620002c9565b6040870151909450620002a181620002c9565b6060870151909350620002b481620002c9565b80925050608086015190509295509295909350565b6001600160a01b0381168114620002df57600080fd5b50565b61373c80620002f26000396000f3fe60806040526004361061012a5760003560e01c80638456cb59116100ab578063a59ac6dd1161006f578063a59ac6dd1461032f578063b7f0562814610342578063b8a80aac14610362578063c9580804146103ba578063f2fde38b146103da578063f6be71d1146103fa57600080fd5b80638456cb5914610275578063880ce8ec1461028a5780638da5cb5b146102c75780639137c1a7146102ef57806399e6440d1461030f57600080fd5b806357bb1c93116100f257806357bb1c93146101df5780635c975abb146101ff5780635ede626614610220578063715018a61461024057806381ca7eba1461025557600080fd5b80630fb5a6b41461012f5780633f4ba83a146101585780634129a6431461016f578063428554d91461018f578063543bc28f146101bf575b600080fd5b34801561013b57600080fd5b5061014560025481565b6040519081526020015b60405180910390f35b34801561016457600080fd5b5061016d61041a565b005b34801561017b57600080fd5b5061016d61018a366004612fb5565b6104d2565b34801561019b57600080fd5b506101af6101aa366004613146565b610a85565b604051901515815260200161014f565b3480156101cb57600080fd5b5061016d6101da366004612ec3565b610e45565b3480156101eb57600080fd5b5061016d6101fa366004612ec3565b610ef1565b34801561020b57600080fd5b506000546101af90600160a01b900460ff1681565b34801561022c57600080fd5b5061016d61023b3660046131aa565b610f93565b34801561024c57600080fd5b5061016d6116d7565b34801561026157600080fd5b5061016d610270366004612ec3565b61174b565b34801561028157600080fd5b5061016d61181b565b34801561029657600080fd5b506102aa6102a5366004612efd565b6118ab565b60408051938452602084019290925215159082015260600161014f565b3480156102d357600080fd5b506000546040516001600160a01b03909116815260200161014f565b3480156102fb57600080fd5b5061016d61030a366004612ec3565b611944565b34801561031b57600080fd5b506101af61032a36600461327c565b6119f0565b61016d61033d366004612ffd565b611e0d565b34801561034e57600080fd5b5061016d61035d36600461307b565b61205c565b34801561036e57600080fd5b5061038261037d366004612f89565b6121c7565b604080516001600160a01b039788168152969095166020870152938501929092526060840152608083015260a082015260c00161014f565b3480156103c657600080fd5b5061016d6103d5366004612ec3565b6123df565b3480156103e657600080fd5b5061016d6103f5366004612ec3565b612481565b34801561040657600080fd5b5061016d610415366004613321565b61256b565b6000546001600160a01b0316331461044d5760405162461bcd60e51b815260040161044490613526565b60405180910390fd5b600054600160a01b900460ff1661049c5760405162461bcd60e51b815260206004820152601360248201527210dbdb9d1c9858dd081b9bdd081c185d5cd959606a1b6044820152606401610444565b6000805460ff60a01b191681556040517f7805862f689e2f13df9f062ff482ad3ad112aca9e0847911ed832e158c525b339190a1565b600054600160a01b900460ff16156104fc5760405162461bcd60e51b8152600401610444906134d1565b6004546001600160a01b03166340783a65336040516001600160e01b031960e084901b1681526001600160a01b03909116600482015260240160206040518083038186803b15801561054d57600080fd5b505afa158015610561573d6000803e3d6000fd5b505050506040513d601f19601f820116820180604052508101906105859190613304565b6105a15760405162461bcd60e51b81526004016104449061355b565b6001600160a01b03841660009081526003602052604090205460ff166105d95760405162461bcd60e51b81526004016104449061347a565b604051634f558e7960e01b8152600481018490526001600160a01b03851690634f558e799060240160206040518083038186803b15801561061957600080fd5b505afa15801561062d573d6000803e3d6000fd5b505050506040513d601f19601f820116820180604052508101906106519190613304565b61066d5760405162461bcd60e51b8152600401610444906134fa565b336040516331a9108f60e11b8152600481018590526001600160a01b0391821691861690636352211e9060240160206040518083038186803b1580156106b257600080fd5b505afa1580156106c6573d6000803e3d6000fd5b505050506040513d601f19601f820116820180604052508101906106ea9190612ee0565b6001600160a01b0316146107105760405162461bcd60e51b815260040161044490613443565b600554604051632e2a02ab60e21b81526001600160a01b03868116600483015260248201869052600092169063b8a80aac9060440160a06040518083038186803b15801561075d57600080fd5b505afa158015610771573d6000803e3d6000fd5b505050506040513d601f19601f820116820180604052508101906107959190612f36565b5092935050506001600160a01b0382161590506107f45760405162461bcd60e51b815260206004820152601b60248201527f4572726f723a206974656d206c697374696e6720616c726561647900000000006044820152606401610444565b6006546040516322033a3b60e21b81526001600160a01b0387811660048301528581166024830152600092839291169063880ce8ec9060440160606040518083038186803b15801561084557600080fd5b505afa158015610859573d6000803e3d6000fd5b505050506040513d601f19601f8201168201806040525081019061087d9190613353565b935091508290506108d05760405162461bcd60e51b815260206004820152601760248201527f4572726f723a2043757272656e637920696e76616c69640000000000000000006044820152606401610444565b808410156109175760405162461bcd60e51b8152602060048201526014602482015273115c9c9bdc8e881c1c9a58d9481a5b9d985b1a5960621b6044820152606401610444565b6005546001600160a01b0316638e20e6108888338989426002544261093c91906135e7565b6040518863ffffffff1660e01b815260040161095e97969594939291906133cc565b600060405180830381600087803b15801561097857600080fd5b505af115801561098c573d6000803e3d6000fd5b50505050866001600160a01b03166323b872dd6109a63390565b30896040518463ffffffff1660e01b81526004016109c6939291906133a8565b600060405180830381600087803b1580156109e057600080fd5b505af11580156109f4573d6000803e3d6000fd5b5050505085876001600160a01b0316610a0a3390565b6001600160a01b03167f52566d26333e79a9ef6837f8baef1fb2190e88605155a089a0271d9535845c0a3389894260025442610a4691906135e7565b604080516001600160a01b039687168152959094166020860152928401919091526060830152608082015260a00160405180910390a450505050505050565b60008054600160a01b900460ff1615610ab05760405162461bcd60e51b8152600401610444906134d1565b8151835114610af85760405162461bcd60e51b8152602060048201526014602482015273115c9c9bdc8e881a5b9d985b1a59081a5b9c1d5d60621b6044820152606401610444565b60005b8251811015610e3b5760036000858381518110610b1a57610b1a6136b4565b6020908102919091018101516001600160a01b031682528101919091526040016000205460ff16610b5d5760405162461bcd60e51b81526004016104449061347a565b60055484516000916001600160a01b03169063b8a80aac90879085908110610b8757610b876136b4565b6020026020010151868581518110610ba157610ba16136b4565b60200260200101516040518363ffffffff1660e01b8152600401610bda9291906001600160a01b03929092168252602082015260400190565b60a06040518083038186803b158015610bf257600080fd5b505afa158015610c06573d6000803e3d6000fd5b505050506040513d601f19601f82011682018060405250810190610c2a9190612f36565b5092935050506001600160a01b03821633149050610c5a5760405162461bcd60e51b815260040161044490613443565b60055485516001600160a01b03909116906337a1466890879085908110610c8357610c836136b4565b6020026020010151868581518110610c9d57610c9d6136b4565b60200260200101516040518363ffffffff1660e01b8152600401610cd69291906001600160a01b03929092168252602082015260400190565b600060405180830381600087803b158015610cf057600080fd5b505af1158015610d04573d6000803e3d6000fd5b50505050848281518110610d1a57610d1a6136b4565b60200260200101516001600160a01b03166323b872dd30610d383390565b878681518110610d4a57610d4a6136b4565b60200260200101516040518463ffffffff1660e01b8152600401610d70939291906133a8565b600060405180830381600087803b158015610d8a57600080fd5b505af1158015610d9e573d6000803e3d6000fd5b50505050838281518110610db457610db46136b4565b6020026020010151858381518110610dce57610dce6136b4565b60200260200101516001600160a01b0316610de63390565b6001600160a01b03167fe30f5e498f1cf3612016365ef778ca4222436bf9a8f18db0e4756f3be6477c6642604051610e2091815260200190565b60405180910390a45080610e3381613683565b915050610afb565b5060019392505050565b6000546001600160a01b03163314610e6f5760405162461bcd60e51b815260040161044490613526565b6001600160a01b038116610ecf5760405162461bcd60e51b815260206004820152602160248201527f4572726f723a2043757272656e63794d616e61676572206164647265737328306044820152602960f81b6064820152608401610444565b600680546001600160a01b0319166001600160a01b0392909216919091179055565b6000546001600160a01b03163314610f1b5760405162461bcd60e51b815260040161044490613526565b6001600160a01b038116610f715760405162461bcd60e51b815260206004820152601760248201527f4572726f723a205661756c7420616464726573732830290000000000000000006044820152606401610444565b600780546001600160a01b0319166001600160a01b0392909216919091179055565b600054600160a01b900460ff1615610fbd5760405162461bcd60e51b8152600401610444906134d1565b6004546001600160a01b031663481537d6336040516001600160e01b031960e084901b1681526001600160a01b03909116600482015260240160206040518083038186803b15801561100e57600080fd5b505afa158015611022573d6000803e3d6000fd5b505050506040513d601f19601f820116820180604052508101906110469190613304565b6110625760405162461bcd60e51b81526004016104449061355b565b83518551146110835760405162461bcd60e51b8152600401610444906134aa565b82518451146110a45760405162461bcd60e51b8152600401610444906134aa565b81518451146110c55760405162461bcd60e51b8152600401610444906134aa565b80518451146110e65760405162461bcd60e51b8152600401610444906134aa565b60005b84518110156116cf5760036000878381518110611108576111086136b4565b6020908102919091018101516001600160a01b031682528101919091526040016000205460ff1661114b5760405162461bcd60e51b81526004016104449061347a565b85818151811061115d5761115d6136b4565b60200260200101516001600160a01b0316634f558e79868381518110611185576111856136b4565b60200260200101516040518263ffffffff1660e01b81526004016111ab91815260200190565b60206040518083038186803b1580156111c357600080fd5b505afa1580156111d7573d6000803e3d6000fd5b505050506040513d601f19601f820116820180604052508101906111fb9190613304565b6112175760405162461bcd60e51b8152600401610444906134fa565b336001600160a01b0316868281518110611233576112336136b4565b60200260200101516001600160a01b0316636352211e87848151811061125b5761125b6136b4565b60200260200101516040518263ffffffff1660e01b815260040161128191815260200190565b60206040518083038186803b15801561129957600080fd5b505afa1580156112ad573d6000803e3d6000fd5b505050506040513d601f19601f820116820180604052508101906112d19190612ee0565b6001600160a01b0316146112f75760405162461bcd60e51b815260040161044490613443565b60055486516000916001600160a01b03169063b8a80aac90899085908110611321576113216136b4565b602002602001015188858151811061133b5761133b6136b4565b60200260200101516040518363ffffffff1660e01b81526004016113749291906001600160a01b03929092168252602082015260400190565b60a06040518083038186803b15801561138c57600080fd5b505afa1580156113a0573d6000803e3d6000fd5b505050506040513d601f19601f820116820180604052508101906113c49190612f36565b5092935050506001600160a01b0382161590506114235760405162461bcd60e51b815260206004820152601b60248201527f4572726f723a206974656d206c697374696e6720616c726561647900000000006044820152606401610444565b60055487516001600160a01b0390911690638e20e6109089908590811061144c5761144c6136b4565b6020026020010151888581518110611466576114666136b4565b60200260200101516114753390565b898781518110611487576114876136b4565b60200260200101518988815181106114a1576114a16136b4565b6020026020010151428a8a815181106114bc576114bc6136b4565b6020026020010151426114cf91906135e7565b6040518863ffffffff1660e01b81526004016114f197969594939291906133cc565b600060405180830381600087803b15801561150b57600080fd5b505af115801561151f573d6000803e3d6000fd5b50505050868281518110611535576115356136b4565b60200260200101516001600160a01b03166323b872dd6115523390565b30898681518110611565576115656136b4565b60200260200101516040518463ffffffff1660e01b815260040161158b939291906133a8565b600060405180830381600087803b1580156115a557600080fd5b505af11580156115b9573d6000803e3d6000fd5b505050508582815181106115cf576115cf6136b4565b60200260200101518783815181106115e9576115e96136b4565b60200260200101516001600160a01b03166116013390565b6001600160a01b03167f52566d26333e79a9ef6837f8baef1fb2190e88605155a089a0271d9535845c0a3389878151811061163e5761163e6136b4565b6020026020010151898881518110611658576116586136b4565b6020026020010151428a8a81518110611673576116736136b4565b60200260200101514261168691906135e7565b604080516001600160a01b039687168152959094166020860152928401919091526060830152608082015260a00160405180910390a450806116c781613683565b9150506110e9565b505050505050565b6000546001600160a01b031633146117015760405162461bcd60e51b815260040161044490613526565b600080546040516001600160a01b03909116907f8be0079c531659141344cd1fd0a4f28419497f9722a3daafe3b4186f6b6457e0908390a3600080546001600160a01b0319169055565b6000546001600160a01b031633146117755760405162461bcd60e51b815260040161044490613526565b6040516370a0823160e01b81523060048201526000906001600160a01b038316906370a082319060240160206040518083038186803b1580156117b757600080fd5b505afa1580156117cb573d6000803e3d6000fd5b505050506040513d601f19601f820116820180604052508101906117ef919061333a565b90506118176118066000546001600160a01b031690565b6001600160a01b038416908361259a565b5050565b6000546001600160a01b031633146118455760405162461bcd60e51b815260040161044490613526565b600054600160a01b900460ff161561186f5760405162461bcd60e51b8152600401610444906134d1565b6000805460ff60a01b1916600160a01b1781556040517f6985a02210a168e66602d3235cb6db0e70f92b3ba4d376a33c0f3d9434bff6259190a1565b6006546040516322033a3b60e21b81526001600160a01b0384811660048301528381166024830152600092839283929091169063880ce8ec9060440160606040518083038186803b1580156118ff57600080fd5b505afa158015611913573d6000803e3d6000fd5b505050506040513d601f19601f820116820180604052508101906119379190613353565b9250925092509250925092565b6000546001600160a01b0316331461196e5760405162461bcd60e51b815260040161044490613526565b6001600160a01b0381166119ce5760405162461bcd60e51b815260206004820152602160248201527f4572726f723a204d61726b6574563253746f72616765206164647265737328306044820152602960f81b6064820152608401610444565b600580546001600160a01b0319166001600160a01b0392909216919091179055565b60008054600160a01b900460ff1615611a1b5760405162461bcd60e51b8152600401610444906134d1565b6004546001600160a01b0316635fc16a9d336040516001600160e01b031960e084901b1681526001600160a01b03909116600482015260240160206040518083038186803b158015611a6c57600080fd5b505afa158015611a80573d6000803e3d6000fd5b505050506040513d601f19601f82011682018060405250810190611aa49190613304565b611ac05760405162461bcd60e51b81526004016104449061355b565b8351835114611ae15760405162461bcd60e51b8152600401610444906134aa565b8151835114611b025760405162461bcd60e51b8152600401610444906134aa565b60005b8351811015611e005760036000868381518110611b2457611b246136b4565b6020908102919091018101516001600160a01b031682528101919091526040016000205460ff16611b675760405162461bcd60e51b81526004016104449061347a565b6000806000806000600560009054906101000a90046001600160a01b03166001600160a01b031663b8a80aac8b8881518110611ba557611ba56136b4565b60200260200101518b8981518110611bbf57611bbf6136b4565b60200260200101516040518363ffffffff1660e01b8152600401611bf89291906001600160a01b03929092168252602082015260400190565b60a06040518083038186803b158015611c1057600080fd5b505afa158015611c24573d6000803e3d6000fd5b505050506040513d601f19601f82011682018060405250810190611c489190612f36565b939850919650945092509050336001600160a01b03861614611c7c5760405162461bcd60e51b815260040161044490613443565b6005548a516001600160a01b0390911690636e307e30908c9089908110611ca557611ca56136b4565b60200260200101518b8981518110611cbf57611cbf6136b4565b602002602001015188888d8c81518110611cdb57611cdb6136b4565b602002602001015188886040518863ffffffff1660e01b8152600401611d0797969594939291906133cc565b600060405180830381600087803b158015611d2157600080fd5b505af1158015611d35573d6000803e3d6000fd5b50505050898681518110611d4b57611d4b6136b4565b60200260200101516001600160a01b0316611d633390565b6001600160a01b03167fb69555fd4112afbbd115d3845a30e495e4b7cfa1c4ca4d65c712b3a283b8256d8b8981518110611d9f57611d9f6136b4565b6020026020010151868c8b81518110611dba57611dba6136b4565b602090810291909101810151604080519485529184019290925282015242606082015260800160405180910390a350505050508080611df890613683565b915050611b05565b50600190505b9392505050565b600054600160a01b900460ff1615611e375760405162461bcd60e51b8152600401610444906134d1565b60026001541415611e8a5760405162461bcd60e51b815260206004820152601f60248201527f5265656e7472616e637947756172643a207265656e7472616e742063616c6c006044820152606401610444565b6002600155600554604051632e2a02ab60e21b81526001600160a01b03858116600483015260248201859052600092839283928392169063b8a80aac9060440160a06040518083038186803b158015611ee257600080fd5b505afa158015611ef6573d6000803e3d6000fd5b505050506040513d601f19601f82011682018060405250810190611f1a9190612f36565b9397509195509350909150506001600160a01b038316611f38573494505b611f47878787878787876125fd565b6040516331a9108f60e11b8152600481018790526000906001600160a01b03891690636352211e9060240160206040518083038186803b158015611f8a57600080fd5b505afa158015611f9e573d6000803e3d6000fd5b505050506040513d601f19601f82011682018060405250810190611fc29190612ee0565b905033600080611fd58b8b898c8c6128f6565b604080518d81526001600160a01b038b811660208301529181018a9052606081018d90526080810183905260a081018490524260c0820152929450909250808d1691858216918716907f75dadb3c01a45fbf0f9cd115fe79762c8fc89cb8275e4da9abfea40c115db6169060e00160405180910390a4505060018055505050505050505050565b6000546001600160a01b031633146120865760405162461bcd60e51b815260040161044490613526565b80518251146120ce5760405162461bcd60e51b8152602060048201526014602482015273115c9c9bdc8e881a5b9d985b1a59081a5b9c1d5d60621b6044820152606401610444565b60005b82518110156121c25760006001600160a01b03168382815181106120f7576120f76136b4565b60200260200101516001600160a01b0316141561214e5760405162461bcd60e51b81526020600482015260156024820152744572726f723a204e4654206164647265737328302960581b6044820152606401610444565b818181518110612160576121606136b4565b60200260200101516003600085848151811061217e5761217e6136b4565b6020908102919091018101516001600160a01b03168252810191909152604001600020805460ff1916911515919091179055806121ba81613683565b9150506120d1565b505050565b6001600160a01b0382166000908152600360205260408120548190819081908190819060ff166122095760405162461bcd60e51b81526004016104449061347a565b604051634f558e7960e01b8152600481018890526001600160a01b03891690634f558e799060240160206040518083038186803b15801561224957600080fd5b505afa15801561225d573d6000803e3d6000fd5b505050506040513d601f19601f820116820180604052508101906122819190613304565b61229d5760405162461bcd60e51b8152600401610444906134fa565b600554604051632e2a02ab60e21b81526001600160a01b038a81166004830152602482018a9052600092839283928392839291169063b8a80aac9060440160a06040518083038186803b1580156122f357600080fd5b505afa158015612307573d6000803e3d6000fd5b505050506040513d601f19601f8201168201806040525081019061232b9190612f36565b809550819650829750839850849950505050505060008d6001600160a01b0316639507d39a8e6040518263ffffffff1660e01b815260040161236f91815260200190565b60a06040518083038186803b15801561238757600080fd5b505afa15801561239b573d6000803e3d6000fd5b505050506040513d601f19601f820116820180604052508101906123bf9190613032565b50989e50969c50949a509598509196509450505050509295509295509295565b6000546001600160a01b031633146124095760405162461bcd60e51b815260040161044490613526565b6001600160a01b03811661245f5760405162461bcd60e51b815260206004820152601f60248201527f4572726f723a204163636573734d616e616765722061646472657373283029006044820152606401610444565b600480546001600160a01b0319166001600160a01b0392909216919091179055565b6000546001600160a01b031633146124ab5760405162461bcd60e51b815260040161044490613526565b6001600160a01b0381166125105760405162461bcd60e51b815260206004820152602660248201527f4f776e61626c653a206e6577206f776e657220697320746865207a65726f206160448201526564647265737360d01b6064820152608401610444565b600080546040516001600160a01b03808516939216917f8be0079c531659141344cd1fd0a4f28419497f9722a3daafe3b4186f6b6457e091a3600080546001600160a01b0319166001600160a01b0392909216919091179055565b6000546001600160a01b031633146125955760405162461bcd60e51b815260040161044490613526565b600255565b6040516001600160a01b0383166024820152604481018290526121c290849063a9059cbb60e01b906064015b60408051601f198184030181529190526020810180516001600160e01b03166001600160e01b031990931692909217909152612b77565b6001600160a01b03871660009081526003602052604090205460ff166126355760405162461bcd60e51b81526004016104449061347a565b604051634f558e7960e01b8152600481018790526001600160a01b03881690634f558e799060240160206040518083038186803b15801561267557600080fd5b505afa158015612689573d6000803e3d6000fd5b505050506040513d601f19601f820116820180604052508101906126ad9190613304565b6126c95760405162461bcd60e51b8152600401610444906134fa565b6001600160a01b03841661271f5760405162461bcd60e51b815260206004820152601960248201527f4974656d206e6f74206c69737465642063757272656e746c79000000000000006044820152606401610444565b6040516331a9108f60e11b8152600481018790526001600160a01b03881690636352211e9060240160206040518083038186803b15801561275f57600080fd5b505afa158015612773573d6000803e3d6000fd5b505050506040513d601f19601f820116820180604052508101906127979190612ee0565b6001600160a01b0316336001600160a01b031614156127f85760405162461bcd60e51b815260206004820152601860248201527f43616e206e6f7420627579207768617420796f75206f776e00000000000000006044820152606401610444565b8042101561283a5760405162461bcd60e51b815260206004820152600f60248201526e4974656d207374696c6c206c6f636b60881b6044820152606401610444565b6001600160a01b03831661289d57813410156128985760405162461bcd60e51b815260206004820152601a60248201527f4572726f723a2074686520616d6f756e74206973206c6f7765720000000000006044820152606401610444565b6128ed565b818510156128ed5760405162461bcd60e51b815260206004820152601a60248201527f4572726f723a2074686520616d6f756e74206973206c6f7765720000000000006044820152606401610444565b50505050505050565b6040516323b872dd60e01b8152600090819033906001600160a01b038916906323b872dd9061292d90309085908c906004016133a8565b600060405180830381600087803b15801561294757600080fd5b505af115801561295b573d6000803e3d6000fd5b50506006546040516322033a3b60e21b81526001600160a01b038c811660048301528a8116602483015260009450909116915063880ce8ec9060440160606040518083038186803b1580156129af57600080fd5b505afa1580156129c3573d6000803e3d6000fd5b505050506040513d601f19601f820116820180604052508101906129e79190613353565b50909150600090506127106129fc8389613621565b612a0691906135ff565b90506000612a148289613640565b90506001600160a01b038916612a9b576040516001600160a01b0388169082156108fc029083906000818181858888f19350505050158015612a5a573d6000803e3d6000fd5b506007546040516001600160a01b039091169083156108fc029084906000818181858888f19350505050158015612a95573d6000803e3d6000fd5b50612b00565b612ab06001600160a01b038a16858984612c49565b600754612acc906001600160a01b038b81169187911685612c49565b3415612b005760405133903480156108fc02916000818181858888f19350505050158015612afe573d6000803e3d6000fd5b505b6005546040516306f428cd60e31b81526001600160a01b038d81166004830152602482018d9052909116906337a1466890604401600060405180830381600087803b158015612b4e57600080fd5b505af1158015612b62573d6000803e3d6000fd5b50939d929c50919a5050505050505050505050565b6000612bcc826040518060400160405280602081526020017f5361666542455032303a206c6f772d6c6576656c2063616c6c206661696c6564815250856001600160a01b0316612c709092919063ffffffff16565b8051909150156121c25780806020019051810190612bea9190613304565b6121c25760405162461bcd60e51b815260206004820152602a60248201527f5361666542455032303a204245503230206f7065726174696f6e20646964206e6044820152691bdd081cdd58d8d9595960b21b6064820152608401610444565b612c6a846323b872dd60e01b8585856040516024016125c6939291906133a8565b50505050565b6060612c7f8484600085612c87565b949350505050565b606082471015612ce85760405162461bcd60e51b815260206004820152602660248201527f416464726573733a20696e73756666696369656e742062616c616e636520666f6044820152651c8818d85b1b60d21b6064820152608401610444565b843b612d365760405162461bcd60e51b815260206004820152601d60248201527f416464726573733a2063616c6c20746f206e6f6e2d636f6e74726163740000006044820152606401610444565b600080866001600160a01b03168587604051612d52919061338c565b60006040518083038185875af1925050503d8060008114612d8f576040519150601f19603f3d011682016040523d82523d6000602084013e612d94565b606091505b5091509150612da4828286612daf565b979650505050505050565b60608315612dbe575081611e06565b825115612dce5782518084602001fd5b8160405162461bcd60e51b81526004016104449190613410565b600082601f830112612df957600080fd5b81356020612e0e612e09836135c3565b613592565b80838252828201915082860187848660051b8901011115612e2e57600080fd5b60005b85811015612e56578135612e44816136e0565b84529284019290840190600101612e31565b5090979650505050505050565b600082601f830112612e7457600080fd5b81356020612e84612e09836135c3565b80838252828201915082860187848660051b8901011115612ea457600080fd5b60005b85811015612e5657813584529284019290840190600101612ea7565b600060208284031215612ed557600080fd5b8135611e06816136e0565b600060208284031215612ef257600080fd5b8151611e06816136e0565b60008060408385031215612f1057600080fd5b8235612f1b816136e0565b91506020830135612f2b816136e0565b809150509250929050565b600080600080600060a08688031215612f4e57600080fd5b8551612f59816136e0565b6020870151909550612f6a816136e0565b6040870151606088015160809098015196999198509695945092505050565b60008060408385031215612f9c57600080fd5b8235612fa7816136e0565b946020939093013593505050565b60008060008060808587031215612fcb57600080fd5b8435612fd6816136e0565b9350602085013592506040850135612fed816136e0565b9396929550929360600135925050565b60008060006060848603121561301257600080fd5b833561301d816136e0565b95602085013595506040909401359392505050565b600080600080600060a0868803121561304a57600080fd5b8551613055816136e0565b602087015160408801516060890151608090990151929a91995097965090945092505050565b6000806040838503121561308e57600080fd5b823567ffffffffffffffff808211156130a657600080fd5b6130b286838701612de8565b93506020915081850135818111156130c957600080fd5b85019050601f810186136130dc57600080fd5b80356130ea612e09826135c3565b80828252848201915084840189868560051b870101111561310a57600080fd5b600094505b83851015613136578035613122816136f8565b83526001949094019391850191850161310f565b5080955050505050509250929050565b6000806040838503121561315957600080fd5b823567ffffffffffffffff8082111561317157600080fd5b61317d86838701612de8565b9350602085013591508082111561319357600080fd5b506131a085828601612e63565b9150509250929050565b600080600080600060a086880312156131c257600080fd5b853567ffffffffffffffff808211156131da57600080fd5b6131e689838a01612de8565b965060208801359150808211156131fc57600080fd5b61320889838a01612e63565b9550604088013591508082111561321e57600080fd5b61322a89838a01612de8565b9450606088013591508082111561324057600080fd5b61324c89838a01612e63565b9350608088013591508082111561326257600080fd5b5061326f88828901612e63565b9150509295509295909350565b60008060006060848603121561329157600080fd5b833567ffffffffffffffff808211156132a957600080fd5b6132b587838801612de8565b945060208601359150808211156132cb57600080fd5b6132d787838801612e63565b935060408601359150808211156132ed57600080fd5b506132fa86828701612e63565b9150509250925092565b60006020828403121561331657600080fd5b8151611e06816136f8565b60006020828403121561333357600080fd5b5035919050565b60006020828403121561334c57600080fd5b5051919050565b60008060006060848603121561336857600080fd5b83519250602084015191506040840151613381816136f8565b809150509250925092565b6000825161339e818460208701613657565b9190910192915050565b6001600160a01b039384168152919092166020820152604081019190915260600190565b6001600160a01b03978816815260208101969096529386166040860152919094166060840152608083019390935260a082019290925260c081019190915260e00190565b602081526000825180602084015261342f816040850160208701613657565b601f01601f19169190910160400192915050565b6020808252601c908201527f4572726f723a20796f7520617265206e6f7420746865206f776e657200000000604082015260600190565b602080825260169082015275115c9c9bdc8e88139195081b9bdd081cdd5c1c1bdc9d60521b604082015260600190565b6020808252600d908201526c125b9c1d5d081a5b9d985b1a59609a1b604082015260600190565b6020808252600f908201526e10dbdb9d1c9858dd081c185d5cd959608a1b604082015260600190565b602080825260129082015271115c9c9bdc8e881ddc9bdb99c81b999d125960721b604082015260600190565b6020808252818101527f4f776e61626c653a2063616c6c6572206973206e6f7420746865206f776e6572604082015260600190565b6020808252601b908201527f4e6f742068617665206c697374696e67207065726d697369736f6e0000000000604082015260600190565b604051601f8201601f1916810167ffffffffffffffff811182821017156135bb576135bb6136ca565b604052919050565b600067ffffffffffffffff8211156135dd576135dd6136ca565b5060051b60200190565b600082198211156135fa576135fa61369e565b500190565b60008261361c57634e487b7160e01b600052601260045260246000fd5b500490565b600081600019048311821515161561363b5761363b61369e565b500290565b6000828210156136525761365261369e565b500390565b60005b8381101561367257818101518382015260200161365a565b83811115612c6a5750506000910152565b60006000198214156136975761369761369e565b5060010190565b634e487b7160e01b600052601160045260246000fd5b634e487b7160e01b600052603260045260246000fd5b634e487b7160e01b600052604160045260246000fd5b6001600160a01b03811681146136f557600080fd5b50565b80151581146136f557600080fdfea2646970667358221220ed532720071b0245005d1e00f744525c344ba7120146f60a86907f761c86173964736f6c63430008060033",
  "immutableReferences": {},
  "source": "// SPDX-License-Identifier: MIT\npragma solidity 0.8.6;\n\nimport \"./INFT.sol\";\nimport \"./access/Ownable.sol\";\nimport \"./access/IMarketCurrencyManager.sol\";\nimport \"./lifecycle/Pausable.sol\";\nimport \"./ERC/ERC20/IBEP20.sol\";\nimport \"./access/IMarketAccessManager.sol\";\nimport \"./security/ReentrancyGuard.sol\";\nimport \"./MarketV2Storage.sol\";\nimport \"./ERC/ERC20/SafeBEP20.sol\";\n\ncontract MarketV2 is Ownable, Pausable, ReentrancyGuard {\n    using SafeBEP20 for IBEP20;\n\n    uint256 public duration; //seconds\n\n    mapping(address => bool) nfts;\n    IMarketAccessManager private accessManager;\n    MarketV2Storage private marketV2Storage;\n    IMarketCurrencyManager private currencyManager;\n    address vault;\n\n    event Purchase(\n        address indexed previousOwner,\n        address indexed newOwner,\n        address indexed nft,\n        uint256 nftId,\n        address currency,\n        uint256 listingPrice,\n        uint256 price,\n        uint256 sellerAmount,\n        uint256 commissionAmount,\n        uint256 time\n    );\n\n    event Listing(\n        address indexed owner,\n        address indexed nft,\n        uint256 indexed nftId,\n        address listingUser,\n        address currency,\n        uint256 listingPrice,\n        uint256 listingTime,\n        uint256 openTime\n    );\n\n    event PriceUpdate(\n        address indexed owner,\n        address indexed nft,\n        uint256 nftId,\n        uint256 oldPrice,\n        uint256 newPrice,\n        uint256 time\n    );\n\n    event UnListing(address indexed owner, address indexed nft, uint256 indexed nftId, uint256 time);\n\n    constructor(\n        IMarketAccessManager _accessManager,\n        MarketV2Storage _marketV2Storage,\n        IMarketCurrencyManager _currencyManager,\n        address _vault,\n        uint256 _duration\n    ) {\n        require(_vault != address(0), \"Error: Vault address(0)\");\n        require(\n            address(_accessManager) != address(0),\n            \"Error: AccessManager address(0)\"\n        );\n        require(\n            address(_marketV2Storage) != address(0),\n            \"Error: MarketV2Storage address(0)\"\n        );\n\n        require(\n            address(_currencyManager) != address(0),\n            \"Error: CurrencyManager address(0)\"\n        );\n\n        accessManager = _accessManager;\n        marketV2Storage = _marketV2Storage;\n        currencyManager = _currencyManager;\n        vault = _vault;\n        duration = _duration;\n    }\n\n    function setAccessManager(IMarketAccessManager _accessManager)\n        external\n        onlyOwner\n    {\n        require(\n            address(_accessManager) != address(0),\n            \"Error: AccessManager address(0)\"\n        );\n        accessManager = _accessManager;\n    }\n\n    function setVauld(address _vault) external onlyOwner {\n        require(_vault != address(0), \"Error: Vault address(0)\");\n        vault = _vault;\n    }\n\n    function setDuration(uint256 _duration) external onlyOwner {\n        duration = _duration;\n    }\n\n    function setNFT(address[] memory _nfts, bool[] memory _isSupports) external onlyOwner {\n        require(_nfts.length == _isSupports.length, \"Error: invalid input\");\n\n        for (uint256 i = 0; i < _nfts.length; i++) {\n            require(address(_nfts[i]) != address(0), \"Error: NFT address(0)\");\n            nfts[_nfts[i]] = _isSupports[i];\n        }\n    }\n\n    function setStorage(MarketV2Storage _marketV2Storage) external onlyOwner {\n        require(\n            address(_marketV2Storage) != address(0),\n            \"Error: MarketV2Storage address(0)\"\n        );\n        marketV2Storage = _marketV2Storage;\n    }\n\n    function setCurrencyManager(IMarketCurrencyManager _currencyManager)\n        external\n        onlyOwner\n    {\n        require(\n            address(_currencyManager) != address(0),\n            \"Error: CurrencyManager address(0)\"\n        );\n        currencyManager = _currencyManager;\n    }\n\n    function getItem(address _nft, uint256 _nftId)\n        public\n        view\n        returns (\n            address,\n            address,\n            uint256,\n            uint256,\n            uint256,\n            uint256\n        )\n    {\n        require(nfts[_nft], \"Error: NFT not support\");\n        require(INFT(_nft).exists(_nftId), \"Error: wrong nftId\");\n\n        address owner;\n        address currency;\n        uint256 price;\n        uint256 listingTime;\n        uint256 openTime;\n        (owner, currency, price, listingTime, openTime) = marketV2Storage\n            .getItem(_nft, _nftId);\n        uint256 gene;\n        (, , , gene, ) = INFT(_nft).get(_nftId);\n\n        return (owner, currency, price, gene, listingTime, openTime);\n    }\n\n    function listing(\n        address _nft,\n        uint256 _nftId,\n        address _currency,\n        uint256 _price\n    ) external whenNotPaused {\n        require(\n            accessManager.isListingAllowed(_msgSender()),\n            \"Not have listing permisison\"\n        );\n\n        require(nfts[_nft], \"Error: NFT not support\");\n        require(INFT(_nft).exists(_nftId), \"Error: wrong nftId\");\n        require(\n            INFT(_nft).ownerOf(_nftId) == _msgSender(),\n            \"Error: you are not the owner\"\n        );\n        address owner;\n        (owner, , , , ) = marketV2Storage.getItem(_nft,_nftId);\n        require(owner == address(0), \"Error: item listing already\");\n\n        //check currency\n        bool valid;\n        uint256 minAmount;\n        (, minAmount, valid) = currencyManager.getCurrency(_nft, _currency);\n        require(valid, \"Error: Currency invalid\");\n        require(_price >= minAmount, \"Error: price invalid\");\n\n        marketV2Storage.addItem(\n            _nft,\n            _nftId,\n            _msgSender(),\n            _currency,\n            _price,\n            block.timestamp,\n            block.timestamp + duration\n        );\n        //transfer NFT for market contract\n        INFT(_nft).transferFrom(_msgSender(), address(this), _nftId);\n        emit Listing(\n            _msgSender(),\n            _nft,\n            _nftId,\n            _msgSender(),\n            _currency,\n            _price,\n            block.timestamp,\n            block.timestamp + duration\n        );\n    }\n\n    function listingByAdmin(\n        address[] memory _nfts,\n        uint256[] memory _nftIds,\n        address[] memory _currencies,\n        uint256[] memory _prices,\n        uint256[] memory _durations\n    ) external whenNotPaused {\n        require(\n            accessManager.isListingAdminAllowed(_msgSender()),\n            \"Not have listing permisison\"\n        );\n\n        require(_nfts.length == _nftIds.length, \"Input invalid\");\n        require(_nftIds.length == _currencies.length, \"Input invalid\");\n        require(_nftIds.length == _prices.length, \"Input invalid\");\n        require(_nftIds.length == _durations.length, \"Input invalid\");\n\n        for (uint256 i = 0; i < _nftIds.length; i++) {\n            require(nfts[_nfts[i]], \"Error: NFT not support\");\n            require(INFT(_nfts[i]).exists(_nftIds[i]), \"Error: wrong nftId\");\n            require(\n                INFT(_nfts[i]).ownerOf(_nftIds[i]) == _msgSender(),\n                \"Error: you are not the owner\"\n            );\n            address owner;\n            (owner, , , , ) = marketV2Storage.getItem(_nfts[i],_nftIds[i]);\n            require(owner == address(0), \"Error: item listing already\");\n\n            marketV2Storage.addItem(\n                _nfts[i],\n                _nftIds[i],\n                _msgSender(),\n                _currencies[i],\n                _prices[i],\n                block.timestamp,\n                block.timestamp + _durations[i]\n            );\n            //transfer NFT for market contract\n            INFT(_nfts[i]).transferFrom(\n                _msgSender(),\n                address(this),\n                _nftIds[i]\n            );\n            emit Listing(\n                _msgSender(),\n                _nfts[i],\n                _nftIds[i],\n                _msgSender(),\n                _currencies[i],\n                _prices[i],\n                block.timestamp,\n                block.timestamp + _durations[i]\n            );\n        }\n    }\n\n    function buy(\n        address _nft,\n        uint256 _nftId,\n        uint256 _amount\n    ) external payable whenNotPaused nonReentrant {\n        address owner;\n        address currency;\n        uint256 price;\n        uint256 openTime;\n        (owner, currency, price, , openTime) = marketV2Storage.getItem(_nft, _nftId);\n        if (currency == address(0)) {\n            _amount = msg.value;\n        }\n        validate(_nft, _nftId, _amount, owner, currency, price, openTime);\n\n        address previousOwner = INFT(_nft).ownerOf(_nftId);\n        address newOwner = _msgSender();\n\n        uint256 commissionAmount;\n        uint256 sellerAmount;\n        (commissionAmount, sellerAmount) = trade(\n            _nft,\n            _nftId,\n            currency,\n            _amount,\n            owner\n        );\n\n        emit Purchase(\n            previousOwner,\n            newOwner,\n            _nft,\n            _nftId,\n            currency,\n            price,\n            _amount,\n            sellerAmount,\n            commissionAmount,\n            block.timestamp\n        );\n    }\n\n    function validate(\n        address _nft,\n        uint256 _nftId,\n        uint256 _amount,\n        address _owner,\n        address _currency,\n        uint256 _price,\n        uint256 _openTime\n    ) internal view {\n        require(nfts[_nft], \"Error: NFT not support\");\n        require(INFT(_nft).exists(_nftId), \"Error: wrong nftId\");\n        require(_owner != address(0), \"Item not listed currently\");\n        require(\n            _msgSender() != INFT(_nft).ownerOf(_nftId),\n            \"Can not buy what you own\"\n        );\n        require(block.timestamp >= _openTime, \"Item still lock\");\n        if (_currency == address(0)) {\n            require(msg.value >= _price, \"Error: the amount is lower\");\n        } else {\n            require(_amount >= _price, \"Error: the amount is lower\");\n        }\n    }\n\n    function trade(\n        address _nft,\n        uint256 _nftId,\n        address _currency,\n        uint256 _amount,\n        address _nftOwner\n    ) internal returns (uint256, uint256) {\n        address buyer = _msgSender();\n\n        INFT(_nft).transferFrom(address(this), buyer, _nftId);\n\n        uint256 commission;\n        (commission, , ) = currencyManager.getCurrency(_nft,_currency);\n        uint256 commissionAmount = (_amount * commission) / 10000;\n        uint256 sellerAmount = _amount - commissionAmount;\n\n        if (_currency == address(0)) {\n            payable(_nftOwner).transfer(sellerAmount);\n            payable(vault).transfer(commissionAmount);\n        } else {\n            IBEP20(_currency).safeTransferFrom(buyer, _nftOwner, sellerAmount);\n            IBEP20(_currency).safeTransferFrom(buyer, vault, commissionAmount);\n\n            //transfer BNB back to user if currency is not address(0)\n            if (msg.value != 0) {\n                payable(_msgSender()).transfer(msg.value);\n            }\n        }\n\n        marketV2Storage.deleteItem(_nft, _nftId);\n        return (commissionAmount, sellerAmount);\n    }\n\n    function updatePrice(\n        address[]memory _nfts,\n        uint256[] memory _nftIds,\n        uint256[] memory _prices\n    ) public whenNotPaused returns (bool) {\n        require(\n            accessManager.isUpdatePriceAllowed(_msgSender()),\n            \"Not have listing permisison\"\n        );\n\n        require(_nftIds.length == _nfts.length, \"Input invalid\");\n        require(_nftIds.length == _prices.length, \"Input invalid\");\n        for (uint256 i = 0; i < _nftIds.length; i++) {\n            require(nfts[_nfts[i]], \"Error: NFT not support\");\n\n            address nftOwner;\n            address currency;\n            uint256 oldPrice;\n            uint256 listingTime;\n            uint256 openTime;\n            (\n                nftOwner,\n                currency,\n                oldPrice,\n                listingTime,\n                openTime\n            ) = marketV2Storage.getItem(_nfts[i], _nftIds[i]);\n\n            require(_msgSender() == nftOwner, \"Error: you are not the owner\");\n            marketV2Storage.updateItem(\n                _nfts[i],\n                _nftIds[i],\n                nftOwner,\n                currency,\n                _prices[i],\n                listingTime,\n                openTime\n            );\n\n            emit PriceUpdate(\n                _msgSender(),\n                _nfts[i],\n                _nftIds[i],\n                oldPrice,\n                _prices[i],\n                block.timestamp\n            );\n        }\n\n        return true;\n    }\n\n    function unListing(address[]memory _nfts,uint256[] memory _nftIds)\n        public\n        whenNotPaused\n        returns (bool)\n    {\n        require(_nfts.length==_nftIds.length,\"Error: invalid input\");\n\n        for (uint256 i = 0; i < _nftIds.length; i++) {\n            require(nfts[_nfts[i]], \"Error: NFT not support\");\n\n            address nftOwner;\n            (nftOwner, , , , ) = marketV2Storage.getItem(_nfts[i],_nftIds[i]);\n            require(_msgSender() == nftOwner, \"Error: you are not the owner\");\n\n            marketV2Storage.deleteItem(_nfts[i], _nftIds[i]);\n\n            INFT(_nfts[i]).transferFrom(address(this), _msgSender(), _nftIds[i]);\n\n            emit UnListing(_msgSender(), _nfts[i], _nftIds[i], block.timestamp);\n        }\n\n        return true;\n    }\n\n    function getCurrency(address _nft, address _currency)\n        external\n        view\n        returns (\n            uint256,\n            uint256,\n            bool\n        )\n    {\n        return currencyManager.getCurrency(_nft, _currency);\n    }\n\n    /* ========== EMERGENCY ========== */\n    /*\n    Users make mistake by transfering usdt/busd ... to contract address. \n    This function allows contract owner to withdraw those tokens and send back to users.\n    */\n    function rescueStuckErc20(address _token) external onlyOwner {\n        uint256 _amount = IBEP20(_token).balanceOf(address(this));\n        IBEP20(_token).safeTransfer(owner(), _amount);\n    }\n}\n",
  "sourcePath": "/Users/tabatrung/Documents/Work/SpaceMarvel/git/SVE-Market/contracts/MarketV2.sol",
  "compiler": {
    "name": "solc",
    "version": "0.8.6+commit.11564f7e.Emscripten.clang"
  },
  "schemaVersion": "3.4.3",
  "updatedAt": "2022-01-03T09:39:38.592Z",
  "networkType": "ethereum",
  "devdoc": {
    "kind": "dev",
    "methods": {
      "owner()": {
        "details": "Returns the address of the current owner."
      },
      "pause()": {
        "details": "called by the owner to pause, triggers stopped state"
      },
      "renounceOwnership()": {
        "details": "Leaves the contract without owner. It will not be possible to call `onlyOwner` functions anymore. Can only be called by the current owner. NOTE: Renouncing ownership will leave the contract without an owner, thereby removing any functionality that is only available to the owner."
      },
      "transferOwnership(address)": {
        "details": "Transfers ownership of the contract to a new account (`newOwner`). Can only be called by the current owner."
      },
      "unpause()": {
        "details": "called by the owner to unpause, returns to normal state"
      }
    },
    "version": 1
  },
  "userdoc": {
    "kind": "user",
    "methods": {},
    "version": 1
  }
}