{
  "contractName": "MarketV2Storage",
  "abi": [
    {
      "anonymous": false,
      "inputs": [
        {
          "indexed": true,
          "internalType": "address",
          "name": "previousOwner",
          "type": "address"
        },
        {
          "indexed": true,
          "internalType": "address",
          "name": "newOwner",
          "type": "address"
        }
      ],
      "name": "OwnershipTransferred",
      "type": "event"
    },
    {
      "inputs": [],
      "name": "owner",
      "outputs": [
        {
          "internalType": "address",
          "name": "",
          "type": "address"
        }
      ],
      "stateMutability": "view",
      "type": "function",
      "constant": true
    },
    {
      "inputs": [],
      "name": "renounceOwnership",
      "outputs": [],
      "stateMutability": "nonpayable",
      "type": "function"
    },
    {
      "inputs": [
        {
          "internalType": "address",
          "name": "newOwner",
          "type": "address"
        }
      ],
      "name": "transferOwnership",
      "outputs": [],
      "stateMutability": "nonpayable",
      "type": "function"
    },
    {
      "inputs": [
        {
          "internalType": "address",
          "name": "_market",
          "type": "address"
        }
      ],
      "name": "setMarket",
      "outputs": [],
      "stateMutability": "nonpayable",
      "type": "function"
    },
    {
      "inputs": [
        {
          "internalType": "address",
          "name": "_nft",
          "type": "address"
        },
        {
          "internalType": "uint256",
          "name": "_nftId",
          "type": "uint256"
        },
        {
          "internalType": "address",
          "name": "_owner",
          "type": "address"
        },
        {
          "internalType": "address",
          "name": "_currency",
          "type": "address"
        },
        {
          "internalType": "uint256",
          "name": "_price",
          "type": "uint256"
        },
        {
          "internalType": "uint256",
          "name": "_listingTime",
          "type": "uint256"
        },
        {
          "internalType": "uint256",
          "name": "_openTime",
          "type": "uint256"
        }
      ],
      "name": "addItem",
      "outputs": [],
      "stateMutability": "nonpayable",
      "type": "function"
    },
    {
      "inputs": [
        {
          "internalType": "address[]",
          "name": "_nfts",
          "type": "address[]"
        },
        {
          "internalType": "uint256[]",
          "name": "_nftIds",
          "type": "uint256[]"
        },
        {
          "internalType": "address[]",
          "name": "_owners",
          "type": "address[]"
        },
        {
          "internalType": "address[]",
          "name": "_currencies",
          "type": "address[]"
        },
        {
          "internalType": "uint256[]",
          "name": "_prices",
          "type": "uint256[]"
        },
        {
          "internalType": "uint256[]",
          "name": "_listingTimes",
          "type": "uint256[]"
        },
        {
          "internalType": "uint256[]",
          "name": "_openTimes",
          "type": "uint256[]"
        }
      ],
      "name": "addItems",
      "outputs": [],
      "stateMutability": "nonpayable",
      "type": "function"
    },
    {
      "inputs": [
        {
          "internalType": "address",
          "name": "_nft",
          "type": "address"
        },
        {
          "internalType": "uint256",
          "name": "_nftId",
          "type": "uint256"
        }
      ],
      "name": "deleteItem",
      "outputs": [],
      "stateMutability": "nonpayable",
      "type": "function"
    },
    {
      "inputs": [
        {
          "internalType": "address[]",
          "name": "_nfts",
          "type": "address[]"
        },
        {
          "internalType": "uint256[]",
          "name": "_nftIds",
          "type": "uint256[]"
        }
      ],
      "name": "deleteItems",
      "outputs": [],
      "stateMutability": "nonpayable",
      "type": "function"
    },
    {
      "inputs": [
        {
          "internalType": "address",
          "name": "_nft",
          "type": "address"
        },
        {
          "internalType": "uint256",
          "name": "_nftId",
          "type": "uint256"
        },
        {
          "internalType": "address",
          "name": "_owner",
          "type": "address"
        },
        {
          "internalType": "address",
          "name": "_currency",
          "type": "address"
        },
        {
          "internalType": "uint256",
          "name": "_price",
          "type": "uint256"
        },
        {
          "internalType": "uint256",
          "name": "_listingTime",
          "type": "uint256"
        },
        {
          "internalType": "uint256",
          "name": "_openTime",
          "type": "uint256"
        }
      ],
      "name": "updateItem",
      "outputs": [],
      "stateMutability": "nonpayable",
      "type": "function"
    },
    {
      "inputs": [
        {
          "internalType": "address",
          "name": "_nft",
          "type": "address"
        },
        {
          "internalType": "uint256",
          "name": "_nftId",
          "type": "uint256"
        }
      ],
      "name": "getItem",
      "outputs": [
        {
          "internalType": "address",
          "name": "",
          "type": "address"
        },
        {
          "internalType": "address",
          "name": "",
          "type": "address"
        },
        {
          "internalType": "uint256",
          "name": "",
          "type": "uint256"
        },
        {
          "internalType": "uint256",
          "name": "",
          "type": "uint256"
        },
        {
          "internalType": "uint256",
          "name": "",
          "type": "uint256"
        }
      ],
      "stateMutability": "view",
      "type": "function",
      "constant": true
    }
  ],
  "bytecode": "0x608060405234801561001057600080fd5b50600080546001600160a01b031916339081178255604051909182917f8be0079c531659141344cd1fd0a4f28419497f9722a3daafe3b4186f6b6457e0908290a350610b06806100616000396000f3fe608060405234801561001057600080fd5b506004361061009e5760003560e01c80638e20e610116100665780638e20e610146100cb578063b8a80aac14610106578063c0fb3f1d1461018f578063da4c529b146101a2578063f2fde38b146101b557600080fd5b806337a14668146100a35780636dcea85f146100b85780636e307e30146100cb578063715018a6146100de5780638da5cb5b146100e6575b600080fd5b6100b66100b13660046107b2565b6101c8565b005b6100b66100c6366004610790565b610251565b6100b66100d93660046107dc565b6102e7565b6100b66103a4565b6000546040516001600160a01b0390911681526020015b60405180910390f35b61015c6101143660046107b2565b6001600160a01b039182166000908152600160208181526040808420948452939052919020805491810154600282015460038301546004909301549385169591909416939290565b604080516001600160a01b039687168152959094166020860152928401919091526060830152608082015260a0016100fd565b6100b661019d366004610844565b610418565b6100b66101b03660046108a8565b6104a1565b6100b66101c3366004610790565b6105b1565b6002546001600160a01b031633146101fb5760405162461bcd60e51b81526004016101f2906109f8565b60405180910390fd5b6001600160a01b03909116600090815260016020818152604080842094845293905291812080546001600160a01b0319908116825592810180549093169092556002820181905560038201819055600490910155565b6000546001600160a01b0316331461027b5760405162461bcd60e51b81526004016101f2906109c3565b6001600160a01b0381166102c55760405162461bcd60e51b81526020600482015260116024820152704572726f723a206164647265737328302960781b60448201526064016101f2565b600280546001600160a01b0319166001600160a01b0392909216919091179055565b6002546001600160a01b031633146103115760405162461bcd60e51b81526004016101f2906109f8565b6040805160a0810182526001600160a01b0396871681529486166020808701918252868301958652606087019485526080870193845298871660009081526001808b52838220998252989099529720935184549086166001600160a01b03199182161785559651958401805496909516959096169490941790925590516002820155905160038201559051600490910155565b6000546001600160a01b031633146103ce5760405162461bcd60e51b81526004016101f2906109c3565b600080546040516001600160a01b03909116907f8be0079c531659141344cd1fd0a4f28419497f9722a3daafe3b4186f6b6457e0908390a3600080546001600160a01b0319169055565b6002546001600160a01b031633146104425760405162461bcd60e51b81526004016101f2906109f8565b60005b815181101561049c5761048a83828151811061046357610463610aa4565b602002602001015183838151811061047d5761047d610aa4565b60200260200101516101c8565b8061049481610a7b565b915050610445565b505050565b6002546001600160a01b031633146104cb5760405162461bcd60e51b81526004016101f2906109f8565b60005b86518110156105a7576105958882815181106104ec576104ec610aa4565b602002602001015188838151811061050657610506610aa4565b602002602001015188848151811061052057610520610aa4565b602002602001015188858151811061053a5761053a610aa4565b602002602001015188868151811061055457610554610aa4565b602002602001015188878151811061056e5761056e610aa4565b602002602001015188888151811061058857610588610aa4565b60200260200101516102e7565b8061059f81610a7b565b9150506104ce565b5050505050505050565b6000546001600160a01b031633146105db5760405162461bcd60e51b81526004016101f2906109c3565b6001600160a01b0381166106405760405162461bcd60e51b815260206004820152602660248201527f4f776e61626c653a206e6577206f776e657220697320746865207a65726f206160448201526564647265737360d01b60648201526084016101f2565b600080546040516001600160a01b03808516939216917f8be0079c531659141344cd1fd0a4f28419497f9722a3daafe3b4186f6b6457e091a3600080546001600160a01b0319166001600160a01b0392909216919091179055565b80356001600160a01b03811681146106b257600080fd5b919050565b600082601f8301126106c857600080fd5b813560206106dd6106d883610a57565b610a26565b80838252828201915082860187848660051b89010111156106fd57600080fd5b60005b85811015610723576107118261069b565b84529284019290840190600101610700565b5090979650505050505050565b600082601f83011261074157600080fd5b813560206107516106d883610a57565b80838252828201915082860187848660051b890101111561077157600080fd5b60005b8581101561072357813584529284019290840190600101610774565b6000602082840312156107a257600080fd5b6107ab8261069b565b9392505050565b600080604083850312156107c557600080fd5b6107ce8361069b565b946020939093013593505050565b600080600080600080600060e0888a0312156107f757600080fd5b6108008861069b565b9650602088013595506108156040890161069b565b94506108236060890161069b565b9699959850939660808101359560a0820135955060c0909101359350915050565b6000806040838503121561085757600080fd5b823567ffffffffffffffff8082111561086f57600080fd5b61087b868387016106b7565b9350602085013591508082111561089157600080fd5b5061089e85828601610730565b9150509250929050565b600080600080600080600060e0888a0312156108c357600080fd5b873567ffffffffffffffff808211156108db57600080fd5b6108e78b838c016106b7565b985060208a01359150808211156108fd57600080fd5b6109098b838c01610730565b975060408a013591508082111561091f57600080fd5b61092b8b838c016106b7565b965060608a013591508082111561094157600080fd5b61094d8b838c016106b7565b955060808a013591508082111561096357600080fd5b61096f8b838c01610730565b945060a08a013591508082111561098557600080fd5b6109918b838c01610730565b935060c08a01359150808211156109a757600080fd5b506109b48a828b01610730565b91505092959891949750929550565b6020808252818101527f4f776e61626c653a2063616c6c6572206973206e6f7420746865206f776e6572604082015260600190565b60208082526014908201527314dd1bdc9859d94e881bdb9b1e481b585c9ad95d60621b604082015260600190565b604051601f8201601f1916810167ffffffffffffffff81118282101715610a4f57610a4f610aba565b604052919050565b600067ffffffffffffffff821115610a7157610a71610aba565b5060051b60200190565b6000600019821415610a9d57634e487b7160e01b600052601160045260246000fd5b5060010190565b634e487b7160e01b600052603260045260246000fd5b634e487b7160e01b600052604160045260246000fdfea26469706673582212201560a520a71c907ab71f963a23b9b72158ea4c374908811024959083ba37e10464736f6c63430008060033",
  "immutableReferences": {},
  "source": "// SPDX-License-Identifier: MIT\npragma solidity 0.8.6;\n\nimport \"./access/Ownable.sol\";\n\ncontract MarketV2Storage is Ownable {\n    struct Item {\n        address owner;\n        address currency;\n        uint256 price;\n        uint256 listingTime;\n        uint256 openTime;\n    }\n    mapping(address => mapping(uint256 => Item)) items;\n    // mapping(uint256 => Item) public items;\n\n    address market;\n\n    modifier onlyMarket() {\n        require(market == _msgSender(), \"Storage: only market\");\n        _;\n    }\n\n    function setMarket(address _market) external onlyOwner {\n        require(_market != address(0), \"Error: address(0)\");\n        market = _market;\n    }\n\n    function addItem(\n        address _nft,\n        uint256 _nftId,\n        address _owner,\n        address _currency,\n        uint256 _price,\n        uint256 _listingTime,\n        uint256 _openTime\n    ) public onlyMarket {\n        items[_nft][_nftId] = Item(\n            _owner,\n            _currency,\n            _price,\n            _listingTime,\n            _openTime\n        );\n    }\n\n    function addItems(\n        address[] memory _nfts,\n        uint256[] memory _nftIds,\n        address[] memory _owners,\n        address[] memory _currencies,\n        uint256[] memory _prices,\n        uint256[] memory _listingTimes,\n        uint256[] memory _openTimes\n    ) external onlyMarket {\n        for (uint256 i = 0; i < _nftIds.length; i++) {\n            addItem(\n                _nfts[i],\n                _nftIds[i],\n                _owners[i],\n                _currencies[i],\n                _prices[i],\n                _listingTimes[i],\n                _openTimes[i]\n            );\n        }\n    }\n\n    function deleteItem(address _nft,uint256 _nftId) public onlyMarket {\n        delete items[_nft][_nftId];\n    }\n\n    function deleteItems(address[] memory _nfts,uint256[] memory _nftIds) external onlyMarket {\n        for (uint256 i = 0; i < _nftIds.length; i++) {\n            deleteItem(_nfts[i], _nftIds[i]);\n        }\n    }\n\n    function updateItem(\n        address _nft,\n        uint256 _nftId,\n        address _owner,\n        address _currency,\n        uint256 _price,\n        uint256 _listingTime,\n        uint256 _openTime\n    ) external onlyMarket {\n        items[_nft][_nftId] = Item(\n            _owner,\n            _currency,\n            _price,\n            _listingTime,\n            _openTime\n        );\n    }\n\n    function getItem(address _nft, uint256 _nftId)\n        external\n        view\n        returns (\n            address,\n            address,\n            uint256,\n            uint256,\n            uint256\n        )\n    {\n        return (\n            items[_nft][_nftId].owner,\n            items[_nft][_nftId].currency,\n            items[_nft][_nftId].price,\n            items[_nft][_nftId].listingTime,\n            items[_nft][_nftId].openTime\n        );\n    }\n}\n",
  "sourcePath": "/Users/tabatrung/Documents/Work/SpaceMarvel/git/SVE-Market/contracts/MarketV2Storage.sol",
  "compiler": {
    "name": "solc",
    "version": "0.8.6+commit.11564f7e.Emscripten.clang"
  },
  "schemaVersion": "3.4.3",
  "updatedAt": "2022-01-03T09:39:38.605Z",
  "networkType": "ethereum",
  "devdoc": {
    "kind": "dev",
    "methods": {
      "owner()": {
        "details": "Returns the address of the current owner."
      },
      "renounceOwnership()": {
        "details": "Leaves the contract without owner. It will not be possible to call `onlyOwner` functions anymore. Can only be called by the current owner. NOTE: Renouncing ownership will leave the contract without an owner, thereby removing any functionality that is only available to the owner."
      },
      "transferOwnership(address)": {
        "details": "Transfers ownership of the contract to a new account (`newOwner`). Can only be called by the current owner."
      }
    },
    "version": 1
  },
  "userdoc": {
    "kind": "user",
    "methods": {},
    "version": 1
  }
}