{
  "contractName": "MarketAccessManager",
  "abi": [
    {
      "anonymous": false,
      "inputs": [
        {
          "indexed": true,
          "internalType": "address",
          "name": "previousOwner",
          "type": "address"
        },
        {
          "indexed": true,
          "internalType": "address",
          "name": "newOwner",
          "type": "address"
        }
      ],
      "name": "OwnershipTransferred",
      "type": "event"
    },
    {
      "inputs": [],
      "name": "owner",
      "outputs": [
        {
          "internalType": "address",
          "name": "",
          "type": "address"
        }
      ],
      "stateMutability": "view",
      "type": "function",
      "constant": true
    },
    {
      "inputs": [],
      "name": "renounceOwnership",
      "outputs": [],
      "stateMutability": "nonpayable",
      "type": "function"
    },
    {
      "inputs": [
        {
          "internalType": "address",
          "name": "newOwner",
          "type": "address"
        }
      ],
      "name": "transferOwnership",
      "outputs": [],
      "stateMutability": "nonpayable",
      "type": "function"
    },
    {
      "inputs": [
        {
          "internalType": "address",
          "name": "_to",
          "type": "address"
        },
        {
          "internalType": "bool",
          "name": "_isWhilelist",
          "type": "bool"
        }
      ],
      "name": "setListingWhilelist",
      "outputs": [],
      "stateMutability": "nonpayable",
      "type": "function"
    },
    {
      "inputs": [
        {
          "internalType": "address",
          "name": "_to",
          "type": "address"
        },
        {
          "internalType": "bool",
          "name": "_isWhilelist",
          "type": "bool"
        }
      ],
      "name": "setUpdatePriceWhilelist",
      "outputs": [],
      "stateMutability": "nonpayable",
      "type": "function"
    },
    {
      "inputs": [
        {
          "internalType": "bool",
          "name": "_listingPublicAll",
          "type": "bool"
        }
      ],
      "name": "setListingPublicAll",
      "outputs": [],
      "stateMutability": "nonpayable",
      "type": "function"
    },
    {
      "inputs": [
        {
          "internalType": "bool",
          "name": "_updatePricePublicAll",
          "type": "bool"
        }
      ],
      "name": "setUpdatePricePublicAll",
      "outputs": [],
      "stateMutability": "nonpayable",
      "type": "function"
    },
    {
      "inputs": [
        {
          "internalType": "address",
          "name": "_caller",
          "type": "address"
        }
      ],
      "name": "isListingAllowed",
      "outputs": [
        {
          "internalType": "bool",
          "name": "",
          "type": "bool"
        }
      ],
      "stateMutability": "view",
      "type": "function",
      "constant": true
    },
    {
      "inputs": [
        {
          "internalType": "address",
          "name": "_caller",
          "type": "address"
        }
      ],
      "name": "isUpdatePriceAllowed",
      "outputs": [
        {
          "internalType": "bool",
          "name": "",
          "type": "bool"
        }
      ],
      "stateMutability": "view",
      "type": "function",
      "constant": true
    },
    {
      "inputs": [
        {
          "internalType": "address",
          "name": "_caller",
          "type": "address"
        }
      ],
      "name": "isListingAdminAllowed",
      "outputs": [
        {
          "internalType": "bool",
          "name": "",
          "type": "bool"
        }
      ],
      "stateMutability": "view",
      "type": "function",
      "constant": true
    }
  ],
  "bytecode": "0x608060405234801561001057600080fd5b50600080546001600160a01b031916339081178255604051909182917f8be0079c531659141344cd1fd0a4f28419497f9722a3daafe3b4186f6b6457e0908290a3506105a0806100616000396000f3fe608060405234801561001057600080fd5b506004361061009e5760003560e01c80638da5cb5b116100665780638da5cb5b146101275780639405493614610142578063b1ec769614610155578063f2fde38b14610168578063fd262ffe1461017b57600080fd5b806338c99f2f146100a357806340783a65146100b8578063481537d6146100e05780635fc16a9d1461010c578063715018a61461011f575b600080fd5b6100b66100b136600461051a565b61018e565b005b6100cb6100c63660046104c5565b6101df565b60405190151581526020015b60405180910390f35b6100cb6100ee3660046104c5565b6001600160a01b031660009081526001602052604090205460ff1690565b6100cb61011a3660046104c5565b610216565b6100b6610249565b6000546040516001600160a01b0390911681526020016100d7565b6100b66101503660046104e7565b6102bd565b6100b661016336600461051a565b610312565b6100b66101763660046104c5565b61035a565b6100b66101893660046104e7565b610444565b6000546001600160a01b031633146101c15760405162461bcd60e51b81526004016101b890610535565b60405180910390fd5b60008054911515600160a81b0260ff60a81b19909216919091179055565b60008054600160a01b900460ff168061021057506001600160a01b03821660009081526001602052604090205460ff165b92915050565b60008054600160a81b900460ff16806102105750506001600160a01b031660009081526002602052604090205460ff1690565b6000546001600160a01b031633146102735760405162461bcd60e51b81526004016101b890610535565b600080546040516001600160a01b03909116907f8be0079c531659141344cd1fd0a4f28419497f9722a3daafe3b4186f6b6457e0908390a3600080546001600160a01b0319169055565b6000546001600160a01b031633146102e75760405162461bcd60e51b81526004016101b890610535565b6001600160a01b03919091166000908152600160205260409020805460ff1916911515919091179055565b6000546001600160a01b0316331461033c5760405162461bcd60e51b81526004016101b890610535565b60008054911515600160a01b0260ff60a01b19909216919091179055565b6000546001600160a01b031633146103845760405162461bcd60e51b81526004016101b890610535565b6001600160a01b0381166103e95760405162461bcd60e51b815260206004820152602660248201527f4f776e61626c653a206e6577206f776e657220697320746865207a65726f206160448201526564647265737360d01b60648201526084016101b8565b600080546040516001600160a01b03808516939216917f8be0079c531659141344cd1fd0a4f28419497f9722a3daafe3b4186f6b6457e091a3600080546001600160a01b0319166001600160a01b0392909216919091179055565b6000546001600160a01b0316331461046e5760405162461bcd60e51b81526004016101b890610535565b6001600160a01b03919091166000908152600260205260409020805460ff1916911515919091179055565b80356001600160a01b03811681146104b057600080fd5b919050565b803580151581146104b057600080fd5b6000602082840312156104d757600080fd5b6104e082610499565b9392505050565b600080604083850312156104fa57600080fd5b61050383610499565b9150610511602084016104b5565b90509250929050565b60006020828403121561052c57600080fd5b6104e0826104b5565b6020808252818101527f4f776e61626c653a2063616c6c6572206973206e6f7420746865206f776e657260408201526060019056fea264697066735822122039d9a898dc8e52b2576eda2bb08b4080089aa2c8bc65abbbdbfd87d6d11d66f664736f6c63430008060033",
  "immutableReferences": {},
  "source": "// SPDX-License-Identifier: MIT\npragma solidity 0.8.6;\n\nimport \"./IMarketAccessManager.sol\";\nimport \"./Ownable.sol\";\n\ncontract MarketAccessManager is IMarketAccessManager, Ownable {\n    bool listingPublicAll;\n    bool updatePricePublicAll;\n\n    mapping(address => bool) listingWhilelist;\n    mapping(address => bool) updatePriceWhilelist;\n\n    function setListingWhilelist(address _to, bool _isWhilelist)\n        public\n        onlyOwner\n    {\n        listingWhilelist[_to] = _isWhilelist;\n    }\n\n    function setUpdatePriceWhilelist(address _to, bool _isWhilelist)\n        public\n        onlyOwner\n    {\n        updatePriceWhilelist[_to] = _isWhilelist;\n    }\n\n    function setListingPublicAll(bool _listingPublicAll) public onlyOwner {\n        listingPublicAll = _listingPublicAll;\n    }\n\n    function setUpdatePricePublicAll(bool _updatePricePublicAll) public onlyOwner {\n        updatePricePublicAll = _updatePricePublicAll;\n    }\n\n    function isListingAllowed(address _caller)\n        external\n        view\n        override\n        returns (bool)\n    {\n        return listingPublicAll || listingWhilelist[_caller];\n    }\n\n    function isUpdatePriceAllowed(address _caller)\n        external\n        view\n        override\n        returns (bool)\n    {\n        return updatePricePublicAll || updatePriceWhilelist[_caller];\n    }\n\n    function isListingAdminAllowed(address _caller) \n        external\n        view\n        override\n        returns (bool)\n    {\n        return listingWhilelist[_caller];\n    }\n}\n",
  "sourcePath": "/Users/tabatrung/Documents/Work/SpaceMarvel/git/SVE-Market/contracts/access/MarketAccessManager.sol",
  "compiler": {
    "name": "solc",
    "version": "0.8.6+commit.11564f7e.Emscripten.clang"
  },
  "schemaVersion": "3.4.3",
  "updatedAt": "2022-01-03T09:39:38.581Z",
  "networkType": "ethereum",
  "devdoc": {
    "kind": "dev",
    "methods": {
      "owner()": {
        "details": "Returns the address of the current owner."
      },
      "renounceOwnership()": {
        "details": "Leaves the contract without owner. It will not be possible to call `onlyOwner` functions anymore. Can only be called by the current owner. NOTE: Renouncing ownership will leave the contract without an owner, thereby removing any functionality that is only available to the owner."
      },
      "transferOwnership(address)": {
        "details": "Transfers ownership of the contract to a new account (`newOwner`). Can only be called by the current owner."
      }
    },
    "version": 1
  },
  "userdoc": {
    "kind": "user",
    "methods": {},
    "version": 1
  }
}